{
  "_format": "hh-sol-artifact-1",
  "contractName": "Carbon",
  "sourceName": "contracts/nft.sol",
  "abi": [
    {
      "inputs": [],
      "stateMutability": "nonpayable",
      "type": "constructor"
    },
    {
      "anonymous": false,
      "inputs": [
        {
          "indexed": true,
          "internalType": "address",
          "name": "owner",
          "type": "address"
        },
        {
          "indexed": true,
          "internalType": "address",
          "name": "approved",
          "type": "address"
        },
        {
          "indexed": true,
          "internalType": "uint256",
          "name": "tokenId",
          "type": "uint256"
        }
      ],
      "name": "Approval",
      "type": "event"
    },
    {
      "anonymous": false,
      "inputs": [
        {
          "indexed": true,
          "internalType": "address",
          "name": "owner",
          "type": "address"
        },
        {
          "indexed": true,
          "internalType": "address",
          "name": "operator",
          "type": "address"
        },
        {
          "indexed": false,
          "internalType": "bool",
          "name": "approved",
          "type": "bool"
        }
      ],
      "name": "ApprovalForAll",
      "type": "event"
    },
    {
      "anonymous": false,
      "inputs": [
        {
          "indexed": true,
          "internalType": "address",
          "name": "previousOwner",
          "type": "address"
        },
        {
          "indexed": true,
          "internalType": "address",
          "name": "newOwner",
          "type": "address"
        }
      ],
      "name": "OwnershipTransferred",
      "type": "event"
    },
    {
      "anonymous": false,
      "inputs": [
        {
          "indexed": false,
          "internalType": "address",
          "name": "account",
          "type": "address"
        }
      ],
      "name": "Paused",
      "type": "event"
    },
    {
      "anonymous": false,
      "inputs": [
        {
          "indexed": true,
          "internalType": "address",
          "name": "from",
          "type": "address"
        },
        {
          "indexed": true,
          "internalType": "address",
          "name": "to",
          "type": "address"
        },
        {
          "indexed": true,
          "internalType": "uint256",
          "name": "tokenId",
          "type": "uint256"
        }
      ],
      "name": "Transfer",
      "type": "event"
    },
    {
      "anonymous": false,
      "inputs": [
        {
          "indexed": false,
          "internalType": "address",
          "name": "account",
          "type": "address"
        }
      ],
      "name": "Unpaused",
      "type": "event"
    },
    {
      "inputs": [
        {
          "internalType": "address",
          "name": "to",
          "type": "address"
        },
        {
          "internalType": "uint256",
          "name": "tokenId",
          "type": "uint256"
        }
      ],
      "name": "approve",
      "outputs": [],
      "stateMutability": "nonpayable",
      "type": "function"
    },
    {
      "inputs": [
        {
          "internalType": "address",
          "name": "owner",
          "type": "address"
        }
      ],
      "name": "balanceOf",
      "outputs": [
        {
          "internalType": "uint256",
          "name": "",
          "type": "uint256"
        }
      ],
      "stateMutability": "view",
      "type": "function"
    },
    {
      "inputs": [],
      "name": "contractURI",
      "outputs": [
        {
          "internalType": "string",
          "name": "",
          "type": "string"
        }
      ],
      "stateMutability": "pure",
      "type": "function"
    },
    {
      "inputs": [
        {
          "internalType": "uint256",
          "name": "tokenId",
          "type": "uint256"
        }
      ],
      "name": "getApproved",
      "outputs": [
        {
          "internalType": "address",
          "name": "",
          "type": "address"
        }
      ],
      "stateMutability": "view",
      "type": "function"
    },
    {
      "inputs": [
        {
          "internalType": "uint256",
          "name": "max_supply",
          "type": "uint256"
        },
        {
          "internalType": "uint256",
          "name": "mintingFee",
          "type": "uint256"
        },
        {
          "internalType": "address",
          "name": "bctAddress",
          "type": "address"
        },
        {
          "internalType": "string",
          "name": "ercName",
          "type": "string"
        },
        {
          "internalType": "string",
          "name": "ercSymbol",
          "type": "string"
        }
      ],
      "name": "initialize",
      "outputs": [],
      "stateMutability": "nonpayable",
      "type": "function"
    },
    {
      "inputs": [
        {
          "internalType": "address",
          "name": "_owner",
          "type": "address"
        },
        {
          "internalType": "address",
          "name": "_operator",
          "type": "address"
        }
      ],
      "name": "isApprovedForAll",
      "outputs": [
        {
          "internalType": "bool",
          "name": "isOperator",
          "type": "bool"
        }
      ],
      "stateMutability": "view",
      "type": "function"
    },
    {
      "inputs": [],
      "name": "name",
      "outputs": [
        {
          "internalType": "string",
          "name": "",
          "type": "string"
        }
      ],
      "stateMutability": "view",
      "type": "function"
    },
    {
      "inputs": [],
      "name": "owner",
      "outputs": [
        {
          "internalType": "address",
          "name": "",
          "type": "address"
        }
      ],
      "stateMutability": "view",
      "type": "function"
    },
    {
      "inputs": [
        {
          "internalType": "uint256",
          "name": "tokenId",
          "type": "uint256"
        }
      ],
      "name": "ownerOf",
      "outputs": [
        {
          "internalType": "address",
          "name": "",
          "type": "address"
        }
      ],
      "stateMutability": "view",
      "type": "function"
    },
    {
      "inputs": [],
      "name": "pause",
      "outputs": [],
      "stateMutability": "nonpayable",
      "type": "function"
    },
    {
      "inputs": [],
      "name": "paused",
      "outputs": [
        {
          "internalType": "bool",
          "name": "",
          "type": "bool"
        }
      ],
      "stateMutability": "view",
      "type": "function"
    },
    {
      "inputs": [],
      "name": "renounceOwnership",
      "outputs": [],
      "stateMutability": "nonpayable",
      "type": "function"
    },
    {
      "inputs": [
        {
          "internalType": "address",
          "name": "to",
          "type": "address"
        }
      ],
      "name": "safeMint",
      "outputs": [],
      "stateMutability": "nonpayable",
      "type": "function"
    },
    {
      "inputs": [
        {
          "internalType": "address",
          "name": "from",
          "type": "address"
        },
        {
          "internalType": "address",
          "name": "to",
          "type": "address"
        },
        {
          "internalType": "uint256",
          "name": "tokenId",
          "type": "uint256"
        }
      ],
      "name": "safeTransferFrom",
      "outputs": [],
      "stateMutability": "nonpayable",
      "type": "function"
    },
    {
      "inputs": [
        {
          "internalType": "address",
          "name": "from",
          "type": "address"
        },
        {
          "internalType": "address",
          "name": "to",
          "type": "address"
        },
        {
          "internalType": "uint256",
          "name": "tokenId",
          "type": "uint256"
        },
        {
          "internalType": "bytes",
          "name": "_data",
          "type": "bytes"
        }
      ],
      "name": "safeTransferFrom",
      "outputs": [],
      "stateMutability": "nonpayable",
      "type": "function"
    },
    {
      "inputs": [
        {
          "internalType": "address",
          "name": "operator",
          "type": "address"
        },
        {
          "internalType": "bool",
          "name": "approved",
          "type": "bool"
        }
      ],
      "name": "setApprovalForAll",
      "outputs": [],
      "stateMutability": "nonpayable",
      "type": "function"
    },
    {
      "inputs": [
        {
          "internalType": "bytes4",
          "name": "interfaceId",
          "type": "bytes4"
        }
      ],
      "name": "supportsInterface",
      "outputs": [
        {
          "internalType": "bool",
          "name": "",
          "type": "bool"
        }
      ],
      "stateMutability": "view",
      "type": "function"
    },
    {
      "inputs": [],
      "name": "symbol",
      "outputs": [
        {
          "internalType": "string",
          "name": "",
          "type": "string"
        }
      ],
      "stateMutability": "view",
      "type": "function"
    },
    {
      "inputs": [
        {
          "internalType": "uint256",
          "name": "index",
          "type": "uint256"
        }
      ],
      "name": "tokenByIndex",
      "outputs": [
        {
          "internalType": "uint256",
          "name": "",
          "type": "uint256"
        }
      ],
      "stateMutability": "view",
      "type": "function"
    },
    {
      "inputs": [
        {
          "internalType": "address",
          "name": "owner",
          "type": "address"
        },
        {
          "internalType": "uint256",
          "name": "index",
          "type": "uint256"
        }
      ],
      "name": "tokenOfOwnerByIndex",
      "outputs": [
        {
          "internalType": "uint256",
          "name": "",
          "type": "uint256"
        }
      ],
      "stateMutability": "view",
      "type": "function"
    },
    {
      "inputs": [
        {
          "internalType": "uint256",
          "name": "tokenId",
          "type": "uint256"
        }
      ],
      "name": "tokenURI",
      "outputs": [
        {
          "internalType": "string",
          "name": "",
          "type": "string"
        }
      ],
      "stateMutability": "view",
      "type": "function"
    },
    {
      "inputs": [],
      "name": "totalSupply",
      "outputs": [
        {
          "internalType": "uint256",
          "name": "",
          "type": "uint256"
        }
      ],
      "stateMutability": "view",
      "type": "function"
    },
    {
      "inputs": [
        {
          "internalType": "address",
          "name": "from",
          "type": "address"
        },
        {
          "internalType": "address",
          "name": "to",
          "type": "address"
        },
        {
          "internalType": "uint256",
          "name": "tokenId",
          "type": "uint256"
        }
      ],
      "name": "transferFrom",
      "outputs": [],
      "stateMutability": "nonpayable",
      "type": "function"
    },
    {
      "inputs": [
        {
          "internalType": "address",
          "name": "newOwner",
          "type": "address"
        }
      ],
      "name": "transferOwnership",
      "outputs": [],
      "stateMutability": "nonpayable",
      "type": "function"
    },
    {
      "inputs": [],
      "name": "unpause",
      "outputs": [],
      "stateMutability": "nonpayable",
      "type": "function"
    },
    {
      "inputs": [
        {
          "internalType": "contract IERC20",
          "name": "token",
          "type": "address"
        },
        {
          "internalType": "address",
          "name": "recipient",
          "type": "address"
        },
        {
          "internalType": "uint256",
          "name": "amount",
          "type": "uint256"
        }
      ],
      "name": "withdraw",
      "outputs": [],
      "stateMutability": "nonpayable",
      "type": "function"
    }
  ],
  "bytecode": "0x608060405234801561001057600080fd5b50600054610100900460ff168061002a575060005460ff16155b6100915760405162461bcd60e51b815260206004820152602e60248201527f496e697469616c697a61626c653a20636f6e747261637420697320616c72656160448201526d191e481a5b9a5d1a585b1a5e995960921b606482015260840160405180910390fd5b600054610100900460ff161580156100bc576000805460ff1961ff0019909116610100171660011790555b80156100ce576000805461ff00191690555b50612421806100de6000396000f3fe608060405234801561001057600080fd5b506004361061018e5760003560e01c80636352211e116100de578063a22cb46511610097578063d9caed1211610071578063d9caed121461032f578063e8a3d48514610342578063e985e9c51461034a578063f2fde38b1461035d5761018e565b8063a22cb465146102f6578063b88d4fde14610309578063c87b56dd1461031c5761018e565b80636352211e146102a757806370a08231146102ba578063715018a6146102cd5780638456cb59146102d55780638da5cb5b146102dd57806395d89b41146102ee5761018e565b80632f745c591161014b57806340d097c31161012557806340d097c31461026357806342842e0e146102765780634f6ccce7146102895780635c975abb1461029c5761018e565b80632f745c59146102355780632fd6b886146102485780633f4ba83a1461025b5761018e565b806301ffc9a71461019357806306fdde03146101bb578063081812fc146101d0578063095ea7b3146101fb57806318160ddd1461021057806323b872dd14610222575b600080fd5b6101a66101a1366004612005565b610370565b60405190151581526020015b60405180910390f35b6101c361039b565b6040516101b29190612178565b6101e36101de366004612051565b61042e565b6040516001600160a01b0390911681526020016101b2565b61020e610209366004611fbe565b6104c8565b005b6099545b6040519081526020016101b2565b61020e610230366004611ed4565b6105f0565b610214610243366004611fbe565b610628565b61020e610256366004612069565b6106be565b61020e61077a565b61020e610271366004611e80565b6107cd565b61020e610284366004611ed4565b6108dc565b610214610297366004612051565b6108f7565b60c95460ff166101a6565b6101e36102b5366004612051565b610998565b6102146102c8366004611e80565b610a0f565b61020e610a96565b61020e610ae9565b60fb546001600160a01b03166101e3565b6101c3610b3a565b61020e610304366004611f91565b610b49565b61020e610317366004611f14565b610b5f565b6101c361032a366004612051565b610b9e565b61020e61033d36600461203d565b610c3f565b6101c3610d0a565b6101a6610358366004611e9c565b610d2a565b61020e61036b366004611e80565b610d8a565b60006001600160e01b0319821663780e9d6360e01b1480610395575061039582610e44565b92915050565b6060606580546103aa906122e0565b80601f01602080910402602001604051908101604052809291908181526020018280546103d6906122e0565b80156104235780601f106103f857610100808354040283529160200191610423565b820191906000526020600020905b81548152906001019060200180831161040657829003601f168201915b505050505090505b90565b6000818152606760205260408120546001600160a01b03166104ac5760405162461bcd60e51b815260206004820152602c60248201527f4552433732313a20617070726f76656420717565727920666f72206e6f6e657860448201526b34b9ba32b73a103a37b5b2b760a11b60648201526084015b60405180910390fd5b506000908152606960205260409020546001600160a01b031690565b60006104d382610998565b9050806001600160a01b0316836001600160a01b031614156105415760405162461bcd60e51b815260206004820152602160248201527f4552433732313a20617070726f76616c20746f2063757272656e74206f776e656044820152603960f91b60648201526084016104a3565b806001600160a01b0316610553610e94565b6001600160a01b0316148061056f575061056f81610358610e94565b6105e15760405162461bcd60e51b815260206004820152603860248201527f4552433732313a20617070726f76652063616c6c6572206973206e6f74206f7760448201527f6e6572206e6f7220617070726f76656420666f7220616c6c000000000000000060648201526084016104a3565b6105eb8383610ea3565b505050565b6106016105fb610e94565b82610f11565b61061d5760405162461bcd60e51b81526004016104a390612260565b6105eb838383610fe8565b600061063383610a0f565b82106106955760405162461bcd60e51b815260206004820152602b60248201527f455243373231456e756d657261626c653a206f776e657220696e646578206f7560448201526a74206f6620626f756e647360a81b60648201526084016104a3565b506001600160a01b03919091166000908152609760209081526040808320938352929052205490565b600054610100900460ff16806106d7575060005460ff16155b6106f35760405162461bcd60e51b81526004016104a3906121dd565b600054610100900460ff1615801561071e576000805460ff1961ff0019909116610100171660011790555b61012e86905561012f85905561013080546001600160a01b0319166001600160a01b0386161790556107508383611193565b610758611223565b6107606112a7565b8015610772576000805461ff00191690555b505050505050565b610782610e94565b6001600160a01b031661079d60fb546001600160a01b031690565b6001600160a01b0316146107c35760405162461bcd60e51b81526004016104a39061222b565b6107cb611317565b565b61012e5461012d54106108225760405162461bcd60e51b815260206004820152601e60248201527f4e6f206d6f7265204e46547320617661696c61626c6520746f206d696e74000060448201526064016104a3565b6101305461012f546040516323b872dd60e01b81523360048201819052306024830152604482019290925290916001600160a01b0316906323b872dd90606401602060405180830381600087803b15801561087c57600080fd5b505af1158015610890573d6000803e3d6000fd5b505050506040513d601f19601f820116820180604052508101906108b49190611fe9565b5060006108c161012d5490565b90506108d261012d80546001019055565b6105eb83826113b0565b6105eb83838360405180602001604052806000815250610b5f565b600061090260995490565b82106109655760405162461bcd60e51b815260206004820152602c60248201527f455243373231456e756d657261626c653a20676c6f62616c20696e646578206f60448201526b7574206f6620626f756e647360a01b60648201526084016104a3565b6099828154811061098657634e487b7160e01b600052603260045260246000fd5b90600052602060002001549050919050565b6000818152606760205260408120546001600160a01b0316806103955760405162461bcd60e51b815260206004820152602960248201527f4552433732313a206f776e657220717565727920666f72206e6f6e657869737460448201526832b73a103a37b5b2b760b91b60648201526084016104a3565b60006001600160a01b038216610a7a5760405162461bcd60e51b815260206004820152602a60248201527f4552433732313a2062616c616e636520717565727920666f7220746865207a65604482015269726f206164647265737360b01b60648201526084016104a3565b506001600160a01b031660009081526068602052604090205490565b610a9e610e94565b6001600160a01b0316610ab960fb546001600160a01b031690565b6001600160a01b031614610adf5760405162461bcd60e51b81526004016104a39061222b565b6107cb60006113ca565b610af1610e94565b6001600160a01b0316610b0c60fb546001600160a01b031690565b6001600160a01b031614610b325760405162461bcd60e51b81526004016104a39061222b565b6107cb61141c565b6060606680546103aa906122e0565b610b5b610b54610e94565b8383611498565b5050565b610b70610b6a610e94565b83610f11565b610b8c5760405162461bcd60e51b81526004016104a390612260565b610b9884848484611567565b50505050565b6000818152606760205260409020546060906001600160a01b0316610c1d5760405162461bcd60e51b815260206004820152602f60248201527f4552433732314d657461646174613a2055524920717565727920666f72206e6f60448201526e3732bc34b9ba32b73a103a37b5b2b760891b60648201526084016104a3565b6000604051806060016040528060308152602001612381603091399392505050565b610c47610e94565b6001600160a01b0316610c6260fb546001600160a01b031690565b6001600160a01b031614610c885760405162461bcd60e51b81526004016104a39061222b565b60405163a9059cbb60e01b81526001600160a01b0383811660048301526024820183905284169063a9059cbb90604401602060405180830381600087803b158015610cd257600080fd5b505af1158015610ce6573d6000803e3d6000fd5b505050506040513d601f19601f82011682018060405250810190610b989190611fe9565b60606040518060600160405280603b81526020016123b1603b9139905090565b60006001600160a01b0382167358807bad0b376efc12f5ad86aac70e78ed67deae1415610d5957506001610395565b6001600160a01b038084166000908152606a602090815260408083209386168352929052205460ff165b9392505050565b610d92610e94565b6001600160a01b0316610dad60fb546001600160a01b031690565b6001600160a01b031614610dd35760405162461bcd60e51b81526004016104a39061222b565b6001600160a01b038116610e385760405162461bcd60e51b815260206004820152602660248201527f4f776e61626c653a206e6577206f776e657220697320746865207a65726f206160448201526564647265737360d01b60648201526084016104a3565b610e41816113ca565b50565b60006001600160e01b031982166380ac58cd60e01b1480610e7557506001600160e01b03198216635b5e139f60e01b145b8061039557506301ffc9a760e01b6001600160e01b0319831614610395565b6000610e9e61159a565b905090565b600081815260696020526040902080546001600160a01b0319166001600160a01b0384169081179091558190610ed882610998565b6001600160a01b03167f8c5be1e5ebec7d5bd14f71427d1e84f3dd0314c0f7b2291e5b200ac8c7c3b92560405160405180910390a45050565b6000818152606760205260408120546001600160a01b0316610f8a5760405162461bcd60e51b815260206004820152602c60248201527f4552433732313a206f70657261746f7220717565727920666f72206e6f6e657860448201526b34b9ba32b73a103a37b5b2b760a11b60648201526084016104a3565b6000610f9583610998565b9050806001600160a01b0316846001600160a01b03161480610fd05750836001600160a01b0316610fc58461042e565b6001600160a01b0316145b80610fe05750610fe08185610d2a565b949350505050565b826001600160a01b0316610ffb82610998565b6001600160a01b0316146110635760405162461bcd60e51b815260206004820152602960248201527f4552433732313a207472616e73666572206f6620746f6b656e2074686174206960448201526839903737ba1037bbb760b91b60648201526084016104a3565b6001600160a01b0382166110c55760405162461bcd60e51b8152602060048201526024808201527f4552433732313a207472616e7366657220746f20746865207a65726f206164646044820152637265737360e01b60648201526084016104a3565b6110d08383836115f6565b6110db600082610ea3565b6001600160a01b03831660009081526068602052604081208054600192906111049084906122c9565b90915550506001600160a01b03821660009081526068602052604081208054600192906111329084906122b1565b909155505060008181526067602052604080822080546001600160a01b0319166001600160a01b0386811691821790925591518493918716917fddf252ad1be2c89b69c2b068fc378daa952ba7f163c4a11628f55a4df523b3ef91a4505050565b600054610100900460ff16806111ac575060005460ff16155b6111c85760405162461bcd60e51b81526004016104a3906121dd565b600054610100900460ff161580156111f3576000805460ff1961ff0019909116610100171660011790555b6111fb611647565b611203611647565b61120d83836116ba565b80156105eb576000805461ff0019169055505050565b600054610100900460ff168061123c575060005460ff16155b6112585760405162461bcd60e51b81526004016104a3906121dd565b600054610100900460ff16158015611283576000805460ff1961ff0019909116610100171660011790555b61128b611647565b611293611758565b8015610e41576000805461ff001916905550565b600054610100900460ff16806112c0575060005460ff16155b6112dc5760405162461bcd60e51b81526004016104a3906121dd565b600054610100900460ff16158015611307576000805460ff1961ff0019909116610100171660011790555b61130f611647565b6112936117d6565b60c95460ff166113605760405162461bcd60e51b815260206004820152601460248201527314185d5cd8589b194e881b9bdd081c185d5cd95960621b60448201526064016104a3565b60c9805460ff191690557f5db9ee0a495bf2e6ff9c91a7834c1ba4fdd244a5e8aa4e537bd38aeae4b073aa611393610e94565b6040516001600160a01b03909116815260200160405180910390a1565b610b5b828260405180602001604052806000815250611846565b60fb80546001600160a01b038381166001600160a01b0319831681179093556040519116919082907f8be0079c531659141344cd1fd0a4f28419497f9722a3daafe3b4186f6b6457e090600090a35050565b60c95460ff16156114625760405162461bcd60e51b815260206004820152601060248201526f14185d5cd8589b194e881c185d5cd95960821b60448201526064016104a3565b60c9805460ff191660011790557f62e78cea01bee320cd4e420270b5ea74000d11b0c9f74754ebdbfc544b05a258611393610e94565b816001600160a01b0316836001600160a01b031614156114fa5760405162461bcd60e51b815260206004820152601960248201527f4552433732313a20617070726f766520746f2063616c6c65720000000000000060448201526064016104a3565b6001600160a01b038381166000818152606a6020908152604080832094871680845294825291829020805460ff191686151590811790915591519182527f17307eab39ab6107e8899845ad3d59bd9653f200f220920489ca2b5937696c31910160405180910390a3505050565b611572848484610fe8565b61157e84848484611879565b610b985760405162461bcd60e51b81526004016104a39061218b565b6000333014156115f157600080368080601f0160208091040260200160405190810160405280939291908181526020018383808284376000920191909152505050503601516001600160a01b0316915061042b9050565b503390565b60c95460ff161561163c5760405162461bcd60e51b815260206004820152601060248201526f14185d5cd8589b194e881c185d5cd95960821b60448201526064016104a3565b6105eb83838361198d565b600054610100900460ff1680611660575060005460ff16155b61167c5760405162461bcd60e51b81526004016104a3906121dd565b600054610100900460ff16158015611293576000805460ff1961ff0019909116610100171660011790558015610e41576000805461ff001916905550565b600054610100900460ff16806116d3575060005460ff16155b6116ef5760405162461bcd60e51b81526004016104a3906121dd565b600054610100900460ff1615801561171a576000805460ff1961ff0019909116610100171660011790555b825161172d906065906020860190611d52565b508151611741906066906020850190611d52565b5080156105eb576000805461ff0019169055505050565b600054610100900460ff1680611771575060005460ff16155b61178d5760405162461bcd60e51b81526004016104a3906121dd565b600054610100900460ff161580156117b8576000805460ff1961ff0019909116610100171660011790555b60c9805460ff191690558015610e41576000805461ff001916905550565b600054610100900460ff16806117ef575060005460ff16155b61180b5760405162461bcd60e51b81526004016104a3906121dd565b600054610100900460ff16158015611836576000805460ff1961ff0019909116610100171660011790555b611293611841610e94565b6113ca565b6118508383611a4a565b61185d6000848484611879565b6105eb5760405162461bcd60e51b81526004016104a39061218b565b60006001600160a01b0384163b1561198257836001600160a01b031663150b7a026118a2610e94565b8786866040518563ffffffff1660e01b81526004016118c4949392919061213b565b602060405180830381600087803b1580156118de57600080fd5b505af192505050801561190e575060408051601f3d908101601f1916820190925261190b91810190612021565b60015b611968573d80801561193c576040519150601f19603f3d011682016040523d82523d6000602084013e611941565b606091505b5080516119605760405162461bcd60e51b81526004016104a39061218b565b805181602001fd5b6001600160e01b031916630a85bd0160e11b149050610fe0565b506001949350505050565b6001600160a01b0383166119e8576119e381609980546000838152609a60205260408120829055600182018355919091527f72a152ddfb8e864297c917af52ea6c1c68aead0fee1a62673fcc7e0c94979d000155565b611a0b565b816001600160a01b0316836001600160a01b031614611a0b57611a0b8382611b98565b6001600160a01b038216611a2757611a2281611c35565b6105eb565b826001600160a01b0316826001600160a01b0316146105eb576105eb8282611d0e565b6001600160a01b038216611aa05760405162461bcd60e51b815260206004820181905260248201527f4552433732313a206d696e7420746f20746865207a65726f206164647265737360448201526064016104a3565b6000818152606760205260409020546001600160a01b031615611b055760405162461bcd60e51b815260206004820152601c60248201527f4552433732313a20746f6b656e20616c7265616479206d696e7465640000000060448201526064016104a3565b611b11600083836115f6565b6001600160a01b0382166000908152606860205260408120805460019290611b3a9084906122b1565b909155505060008181526067602052604080822080546001600160a01b0319166001600160a01b03861690811790915590518392907fddf252ad1be2c89b69c2b068fc378daa952ba7f163c4a11628f55a4df523b3ef908290a45050565b60006001611ba584610a0f565b611baf91906122c9565b600083815260986020526040902054909150808214611c02576001600160a01b03841660009081526097602090815260408083208584528252808320548484528184208190558352609890915290208190555b5060009182526098602090815260408084208490556001600160a01b039094168352609781528383209183525290812055565b609954600090611c47906001906122c9565b6000838152609a602052604081205460998054939450909284908110611c7d57634e487b7160e01b600052603260045260246000fd5b906000526020600020015490508060998381548110611cac57634e487b7160e01b600052603260045260246000fd5b6000918252602080832090910192909255828152609a90915260408082208490558582528120556099805480611cf257634e487b7160e01b600052603160045260246000fd5b6001900381819060005260206000200160009055905550505050565b6000611d1983610a0f565b6001600160a01b039093166000908152609760209081526040808320868452825280832085905593825260989052919091209190915550565b828054611d5e906122e0565b90600052602060002090601f016020900481019282611d805760008555611dc6565b82601f10611d9957805160ff1916838001178555611dc6565b82800160010185558215611dc6579182015b82811115611dc6578251825591602001919060010190611dab565b50611dd2929150611dd6565b5090565b5b80821115611dd25760008155600101611dd7565b600067ffffffffffffffff80841115611e0657611e06612331565b604051601f8501601f19908116603f01168101908282118183101715611e2e57611e2e612331565b81604052809350858152868686011115611e4757600080fd5b858560208301376000602087830101525050509392505050565b600082601f830112611e71578081fd5b610d8383833560208501611deb565b600060208284031215611e91578081fd5b8135610d8381612347565b60008060408385031215611eae578081fd5b8235611eb981612347565b91506020830135611ec981612347565b809150509250929050565b600080600060608486031215611ee8578081fd5b8335611ef381612347565b92506020840135611f0381612347565b929592945050506040919091013590565b60008060008060808587031215611f29578081fd5b8435611f3481612347565b93506020850135611f4481612347565b925060408501359150606085013567ffffffffffffffff811115611f66578182fd5b8501601f81018713611f76578182fd5b611f8587823560208401611deb565b91505092959194509250565b60008060408385031215611fa3578182fd5b8235611fae81612347565b91506020830135611ec98161235c565b60008060408385031215611fd0578182fd5b8235611fdb81612347565b946020939093013593505050565b600060208284031215611ffa578081fd5b8151610d838161235c565b600060208284031215612016578081fd5b8135610d838161236a565b600060208284031215612032578081fd5b8151610d838161236a565b600080600060608486031215611ee8578283fd5b600060208284031215612062578081fd5b5035919050565b600080600080600060a08688031215612080578081fd5b8535945060208601359350604086013561209981612347565b9250606086013567ffffffffffffffff808211156120b5578283fd5b6120c189838a01611e61565b935060808801359150808211156120d6578283fd5b506120e388828901611e61565b9150509295509295909350565b60008151808452815b81811015612115576020818501810151868301820152016120f9565b818111156121265782602083870101525b50601f01601f19169290920160200192915050565b6001600160a01b038581168252841660208201526040810183905260806060820181905260009061216e908301846120f0565b9695505050505050565b600060208252610d8360208301846120f0565b60208082526032908201527f4552433732313a207472616e7366657220746f206e6f6e20455243373231526560408201527131b2b4bb32b91034b6b83632b6b2b73a32b960711b606082015260800190565b6020808252602e908201527f496e697469616c697a61626c653a20636f6e747261637420697320616c72656160408201526d191e481a5b9a5d1a585b1a5e995960921b606082015260800190565b6020808252818101527f4f776e61626c653a2063616c6c6572206973206e6f7420746865206f776e6572604082015260600190565b60208082526031908201527f4552433732313a207472616e736665722063616c6c6572206973206e6f74206f6040820152701ddb995c881b9bdc88185c1c1c9bdd9959607a1b606082015260800190565b600082198211156122c4576122c461231b565b500190565b6000828210156122db576122db61231b565b500390565b6002810460018216806122f457607f821691505b6020821081141561231557634e487b7160e01b600052602260045260246000fd5b50919050565b634e487b7160e01b600052601160045260246000fd5b634e487b7160e01b600052604160045260246000fd5b6001600160a01b0381168114610e4157600080fd5b8015158114610e4157600080fd5b6001600160e01b031981168114610e4157600080fdfe687474703a2f2f6170692e636172626f6e697a65642e78797a2f6d657461646174612f6d657461646174612e6a736f6e687474703a2f2f6170692e636172626f6e697a65642e78797a2f6d657461646174612f636f6c6c656374696f6e2d6d657461646174612e6a736f6ea2646970667358221220c5edd78bfb1b0e621c91851d913120c76a33178593fbb9c01f1daf8cceeb2a5164736f6c63430008020033",
  "linkReferences": {},
  "deployedLinkReferences": {}
}